{
  "contractName": "MyContract",
  "abi": [
    {
      "anonymous": false,
      "inputs": [
        {
          "indexed": false,
          "name": "_addr",
          "type": "address"
        },
        {
          "indexed": false,
          "name": "newEmail",
          "type": "string"
        }
      ],
      "name": "userUpdated",
      "type": "event"
    },
    {
      "constant": false,
      "inputs": [
        {
          "name": "_addr",
          "type": "address"
        },
        {
          "name": "_email",
          "type": "string"
        }
      ],
      "name": "setUser",
      "outputs": [],
      "payable": false,
      "stateMutability": "nonpayable",
      "type": "function"
    },
    {
      "constant": true,
      "inputs": [
        {
          "name": "_addr",
          "type": "address"
        }
      ],
      "name": "getUser",
      "outputs": [
        {
          "name": "",
          "type": "string"
        }
      ],
      "payable": false,
      "stateMutability": "view",
      "type": "function"
    }
  ],
  "bytecode": "0x608060405234801561001057600080fd5b506104e9806100206000396000f3fe60806040526004361061004c576000357c0100000000000000000000000000000000000000000000000000000000900463ffffffff1680633f1a51b8146100515780636f77926b14610139575b600080fd5b34801561005d57600080fd5b506101376004803603604081101561007457600080fd5b81019080803573ffffffffffffffffffffffffffffffffffffffff169060200190929190803590602001906401000000008111156100b157600080fd5b8201836020820111156100c357600080fd5b803590602001918460018302840111640100000000831117156100e557600080fd5b91908080601f016020809104026020016040519081016040528093929190818152602001838380828437600081840152601f19601f820116905080830192505050505050509192919290505050610203565b005b34801561014557600080fd5b506101886004803603602081101561015c57600080fd5b81019080803573ffffffffffffffffffffffffffffffffffffffff1690602001909291905050506102ff565b6040518080602001828103825283818151815260200191508051906020019080838360005b838110156101c85780820151818401526020810190506101ad565b50505050905090810190601f1680156101f55780820380516001836020036101000a031916815260200191505b509250505060405180910390f35b60008060008473ffffffffffffffffffffffffffffffffffffffff1673ffffffffffffffffffffffffffffffffffffffff16815260200190815260200160002090508181600001908051906020019061025d929190610404565b507fe99ebf891ecf1848497e78549bd314016c4d1cb85202983ee2949410bc3e605683604051808273ffffffffffffffffffffffffffffffffffffffff1673ffffffffffffffffffffffffffffffffffffffff16815260200180602001828103825260118152602001807f436f6e746120617475616c697a616461210000000000000000000000000000008152506020019250505060405180910390a1505050565b6060610309610484565b6000808473ffffffffffffffffffffffffffffffffffffffff1673ffffffffffffffffffffffffffffffffffffffff16815260200190815260200160002060206040519081016040529081600082018054600181600116156101000203166002900480601f0160208091040260200160405190810160405280929190818152602001828054600181600116156101000203166002900480156103ec5780601f106103c1576101008083540402835291602001916103ec565b820191906000526020600020905b8154815290600101906020018083116103cf57829003601f168201915b50505050508152505090508060000151915050919050565b828054600181600116156101000203166002900490600052602060002090601f016020900481019282601f1061044557805160ff1916838001178555610473565b82800160010185558215610473579182015b82811115610472578251825591602001919060010190610457565b5b5090506104809190610498565b5090565b602060405190810160405280606081525090565b6104ba91905b808211156104b657600081600090555060010161049e565b5090565b9056fea165627a7a723058206f5185b1dadc9b3e329bd1cdca0a45819ec0efe247b3ed5231a36f498cf45c0c0029",
  "source": "pragma solidity ^0.5.0;\r\n\r\ncontract MyContract {\r\n\r\n    // evento para notificar o cliente\r\n    // de que a conta foi atualizada\r\n    event userUpdated(address _addr, string newEmail);\r\n\r\n    // estrutura para manter dados\r\n    // do usuario\r\n    struct User {\r\n        string email;\r\n    }\r\n\r\n    // mapea endereco do usuario\r\n    // a sua estrutura\r\n    mapping (address => User) users;\r\n\r\n    // funcao para cadastrar/atualizar\r\n    // a conta do usuario\r\n    function setUser(address _addr, string memory _email) public {\r\n        User storage user = users[_addr];\r\n        user.email = _email;\r\n\r\n        // notifica o cliente atraves do evento\r\n        emit userUpdated(_addr, \"Conta atualizada!\");\r\n    }\r\n\r\n    // funcao para resgatar\r\n    // dados do usuario\r\n    function getUser(address _addr) public view returns(string memory) {\r\n        User memory user = users[_addr];\r\n        return (user.email);\r\n    }\r\n\r\n}",
  "sourcePath": "D:/Documents/dapp-PoA/dapp/contracts/MyContract.sol",
  "compiler": {
    "name": "solc",
    "version": "0.5.0+commit.1d4f565a.Emscripten.clang"
  },
  "schemaVersion": "3.0.9",
  "updatedAt": "2019-05-19T22:55:16.144Z",
  "devdoc": {
    "methods": {}
  },
  "userdoc": {
    "methods": {}
  }
}