{
  "contractName": "MyContract",
  "abi": [
    {
      "anonymous": false,
      "inputs": [
        {
          "indexed": false,
          "name": "_addr",
          "type": "address"
        },
        {
          "indexed": false,
          "name": "newEmail",
          "type": "string"
        }
      ],
      "name": "userRegisted",
      "type": "event"
    },
    {
      "constant": false,
      "inputs": [
        {
          "name": "id",
          "type": "uint256",
          "indexed": false
        },
        {
          "name": "_email",
          "type": "string"
        }
      ],
      "name": "productRegistered",
      "outputs": [],
      "payable": false,
      "stateMutability": "nonpayable",
      "type": "event",
      "anonymous": false
    },
    {
      "constant": false,
      "inputs": [
        {
          "name": "",
          "type": "uint256[]",
          "indexed": false
        },
        {
          "name": "_email",
          "type": "string"
        }
      ],
      "name": "StageRegistered",
      "outputs": [
        {
          "name": "",
          "type": "string"
        }
      ],
      "payable": false,
      "stateMutability": "nonpayable",
      "type": "event",
      "anonymous": false
    },
    {
      "constant": false,
      "inputs": [
        {
          "name": "_addr",
          "type": "address"
        },
        {
          "name": "_email",
          "type": "string"
        }
      ],
      "name": "setUser",
      "outputs": [
        {
          "name": "",
          "type": "string"
        }
      ],
      "payable": false,
      "stateMutability": "nonpayable",
      "type": "function"
    },
    {
      "constant": true,
      "inputs": [
        {
          "name": "_addr",
          "type": "address"
        },
        {
          "name": "_price",
          "type": "uint256"
        }
      ],
      "name": "getUser",
      "outputs": [
        {
          "name": "",
          "type": "string"
        },
        {
          "name": "",
          "type": "string"
        },
        {
          "name": "",
          "type": "address"
        },
        {
          "name": "",
          "type": "uint256"
        }
      ],
      "payable": false,
      "stateMutability": "view",
      "type": "function"
    },
    {
      "constant": false,
      "inputs": [
        {
          "name": "_desc",
          "type": "string"
        },
        {
          "name": "_price",
          "type": "uint256"
        }
      ],
      "name": "addProduct",
      "outputs": [
        {
          "name": "",
          "type": "uint256"
        },
        {
          "name": "",
          "type": "string"
        },
        {
          "name": "",
          "type": "address"
        },
        {
          "name": "",
          "type": "uint256"
        }
      ],
      "payable": false,
      "stateMutability": "nonpayable",
      "type": "function"
    },
    {
      "constant": true,
      "inputs": [
        {
          "name": "_id",
          "type": "uint256"
        }
      ],
      "name": "productInfo",
      "outputs": [
        {
          "name": "",
          "type": "uint256"
        },
        {
          "name": "",
          "type": "string"
        },
        {
          "name": "",
          "type": "address"
        },
        {
          "name": "",
          "type": "uint256"
        }
      ],
      "payable": false,
      "stateMutability": "view",
      "type": "function"
    },
    {
      "constant": true,
      "inputs": [
        {
          "name": "_owner",
          "type": "address"
        }
      ],
      "name": "getProducts",
      "outputs": [
        {
          "name": "",
          "type": "uint256[]"
        },
        {
          "name": "",
          "type": "string[]"
        },
        {
          "name": "",
          "type": "address[]"
        },
        {
          "name": "",
          "type": "uint256[]"
        }
      ],
      "payable": false,
      "stateMutability": "view",
      "type": "function"
    },
    {
      "constant": false,
      "inputs": [
        {
          "name": "_productsIds",
          "type": "uint256[]"
        },
        {
          "name": "_stageDesc",
          "type": "string"
        }
      ],
      "name": "addToStage",
      "outputs": [],
      "payable": false,
      "stateMutability": "nonpayable",
      "type": "function"
    }
  ],
  "bytecode": "0x60806040526000600555600060065534801561001a57600080fd5b506117088061002a6000396000f3fe608060405260043610610078576000357c0100000000000000000000000000000000000000000000000000000000900463ffffffff1680631691473c1461007d5780633f1a51b8146100bd5780636f77926b146100e6578063b15247d914610123578063bb119f6e14610160578063e63007fb146101a0575b600080fd5b34801561008957600080fd5b506100a4600480360361009f9190810190610f93565b6101c9565b6040516100b494939291906113d3565b60405180910390f35b3480156100c957600080fd5b506100e460048036036100df9190810190610fbc565b61051e565b005b3480156100f257600080fd5b5061010d60048036036101089190810190610f93565b6105b6565b60405161011a9190611434565b60405180910390f35b34801561012f57600080fd5b5061014a6004803603610145919081019061107c565b6106bc565b60405161015791906114b6565b60405180910390f35b34801561016c57600080fd5b50610187600480360361018291908101906110d0565b6108cf565b60405161019794939291906114d1565b60405180910390f35b3480156101ac57600080fd5b506101c760048036036101c29190810190611010565b610aa9565b005b6060806060806060600160008773ffffffffffffffffffffffffffffffffffffffff1673ffffffffffffffffffffffffffffffffffffffff168152602001908152602001600020805490506040519080825280602002602001820160405280156102425781602001602082028038833980820191505090505b5090506060600160008873ffffffffffffffffffffffffffffffffffffffff1673ffffffffffffffffffffffffffffffffffffffff168152602001908152602001600020805490506040519080825280602002602001820160405280156102bd57816020015b60608152602001906001900390816102a85790505b5090506060600160008973ffffffffffffffffffffffffffffffffffffffff1673ffffffffffffffffffffffffffffffffffffffff168152602001908152602001600020805490506040519080825280602002602001820160405280156103335781602001602082028038833980820191505090505b5090506060600160008a73ffffffffffffffffffffffffffffffffffffffff1673ffffffffffffffffffffffffffffffffffffffff168152602001908152602001600020805490506040519080825280602002602001820160405280156103a95781602001602082028038833980820191505090505b50905060008090505b600160008b73ffffffffffffffffffffffffffffffffffffffff1673ffffffffffffffffffffffffffffffffffffffff168152602001908152602001600020805490508110156105065761045b600160008c73ffffffffffffffffffffffffffffffffffffffff1673ffffffffffffffffffffffffffffffffffffffff1681526020019081526020016000208281548110151561044b57fe5b90600052602060002001546108cf565b829250888581518110151561046c57fe5b906020019060200201888681518110151561048357fe5b906020019060200201888781518110151561049a57fe5b90602001906020020188888151811015156104b157fe5b906020019060200201848152508473ffffffffffffffffffffffffffffffffffffffff1673ffffffffffffffffffffffffffffffffffffffff16815250849052848152505050505080806001019150506103b2565b50838383839750975097509750505050509193509193565b6000600460008473ffffffffffffffffffffffffffffffffffffffff1673ffffffffffffffffffffffffffffffffffffffff168152602001908152602001600020905081816000019080519060200190610579929190610ccb565b507fac6ec2f3cde22b84535f0bb70aa5a3d4e365af8847b387e4598b86913b19bab5836040516105a99190611383565b60405180910390a1505050565b60606105c0610d4b565b600460008473ffffffffffffffffffffffffffffffffffffffff1673ffffffffffffffffffffffffffffffffffffffff16815260200190815260200160002060206040519081016040529081600082018054600181600116156101000203166002900480601f0160208091040260200160405190810160405280929190818152602001828054600181600116156101000203166002900480156106a45780601f10610679576101008083540402835291602001916106a4565b820191906000526020600020905b81548152906001019060200180831161068757829003601f168201915b50505050508152505090508060000151915050919050565b60006001835110151515610705576040517f08c379a00000000000000000000000000000000000000000000000000000000081526004016106fc90611496565b60405180910390fd5b60008211151561074a576040517f08c379a000000000000000000000000000000000000000000000000000000000815260040161074190611476565b60405180910390fd5b60056000815480929190600101919050555060806040519081016040528060055481526020018481526020018381526020013373ffffffffffffffffffffffffffffffffffffffff1681525060008060055481526020019081526020016000206000820151816000015560208201518160010190805190602001906107d0929190610d5f565b506040820151816002015560608201518160030160006101000a81548173ffffffffffffffffffffffffffffffffffffffff021916908373ffffffffffffffffffffffffffffffffffffffff160217905550905050600160003373ffffffffffffffffffffffffffffffffffffffff1673ffffffffffffffffffffffffffffffffffffffff16815260200190815260200160002060055490806001815401808255809150509060018203906000526020600020016000909192909190915055507fa0ecd9c452dc8233eea5ff75c2be4760d1cd2ff3edd236618fbe6403dc07c48a6005546040516108c191906114b6565b60405180910390a192915050565b60006060600080600554851115151561091d576040517f08c379a000000000000000000000000000000000000000000000000000000000815260040161091490611456565b60405180910390fd5b610925610ddf565b6000808781526020019081526020016000206080604051908101604052908160008201548152602001600182018054600181600116156101000203166002900480601f0160208091040260200160405190810160405280929190818152602001828054600181600116156101000203166002900480156109e65780601f106109bb576101008083540402835291602001916109e6565b820191906000526020600020905b8154815290600101906020018083116109c957829003601f168201915b50505050508152602001600282015481526020016003820160009054906101000a900473ffffffffffffffffffffffffffffffffffffffff1673ffffffffffffffffffffffffffffffffffffffff1673ffffffffffffffffffffffffffffffffffffffff168152505090508060000151816020015160008089815260200190815260200160002060030160009054906101000a900473ffffffffffffffffffffffffffffffffffffffff1683604001518292509450945094509450509193509193565b6001815110151515610af0576040517f08c379a0000000000000000000000000000000000000000000000000000000008152600401610ae790611496565b60405180910390fd5b60008251111515610b36576040517f08c379a0000000000000000000000000000000000000000000000000000000008152600401610b2d90611476565b60405180910390fd5b60066000815480929190600101919050555060806040519081016040528060065481526020018381526020018281526020013373ffffffffffffffffffffffffffffffffffffffff16815250600260006006548152602001908152602001600020600082015181600001556020820151816001019080519060200190610bbd929190610e1e565b506040820151816002019080519060200190610bda929190610d5f565b5060608201518160030160006101000a81548173ffffffffffffffffffffffffffffffffffffffff021916908373ffffffffffffffffffffffffffffffffffffffff160217905550905050600360003373ffffffffffffffffffffffffffffffffffffffff1673ffffffffffffffffffffffffffffffffffffffff16815260200190815260200160002060065490806001815401808255809150509060018203906000526020600020016000909192909190915055507f4cc60a5ec8fb5bfb3ec397505a58e8cea4d91a7e74b9e01611588ad65c20bbe282604051610cbf91906113b1565b60405180910390a15050565b828054600181600116156101000203166002900490600052602060002090601f016020900481019282601f10610d0c57805160ff1916838001178555610d3a565b82800160010185558215610d3a579182015b82811115610d39578251825591602001919060010190610d1e565b5b509050610d479190610e6b565b5090565b602060405190810160405280606081525090565b828054600181600116156101000203166002900490600052602060002090601f016020900481019282601f10610da057805160ff1916838001178555610dce565b82800160010185558215610dce579182015b82811115610dcd578251825591602001919060010190610db2565b5b509050610ddb9190610e6b565b5090565b608060405190810160405280600081526020016060815260200160008152602001600073ffffffffffffffffffffffffffffffffffffffff1681525090565b828054828255906000526020600020908101928215610e5a579160200282015b82811115610e59578251825591602001919060010190610e3e565b5b509050610e679190610e6b565b5090565b610e8d91905b80821115610e89576000816000905550600101610e71565b5090565b90565b6000610e9c823561165f565b905092915050565b600082601f8301121515610eb757600080fd5b8135610eca610ec58261154a565b61151d565b91508181835260208401935060208101905083856020840282011115610eef57600080fd5b60005b83811015610f1f5781610f058882610f7f565b845260208401935060208301925050600181019050610ef2565b5050505092915050565b600082601f8301121515610f3c57600080fd5b8135610f4f610f4a82611572565b61151d565b91508082526020830160208301858383011115610f6b57600080fd5b610f7683828461167b565b50505092915050565b6000610f8b8235611671565b905092915050565b600060208284031215610fa557600080fd5b6000610fb384828501610e90565b91505092915050565b60008060408385031215610fcf57600080fd5b6000610fdd85828601610e90565b925050602083013567ffffffffffffffff811115610ffa57600080fd5b61100685828601610f29565b9150509250929050565b6000806040838503121561102357600080fd5b600083013567ffffffffffffffff81111561103d57600080fd5b61104985828601610ea4565b925050602083013567ffffffffffffffff81111561106657600080fd5b61107285828601610f29565b9150509250929050565b6000806040838503121561108f57600080fd5b600083013567ffffffffffffffff8111156110a957600080fd5b6110b585828601610f29565b92505060206110c685828601610f7f565b9150509250929050565b6000602082840312156110e257600080fd5b60006110f084828501610f7f565b91505092915050565b61110281611623565b82525050565b6000611113826115c5565b8084526020840193506111258361159e565b60005b828110156111575761113b8683516110f9565b611144826115fc565b9150602086019550600181019050611128565b50849250505092915050565b600061116e826115d0565b80845260208401935083602082028501611187856115ab565b60005b848110156111c05783830388526111a2838351611262565b92506111ad82611609565b915060208801975060018101905061118a565b508196508694505050505092915050565b60006111dc826115db565b8084526020840193506111ee836115b8565b60005b8281101561122057611204868351611374565b61120d82611616565b91506020860195506001810190506111f1565b50849250505092915050565b6000611237826115f1565b80845261124b81602086016020860161168a565b611254816116bd565b602085010191505092915050565b600061126d826115e6565b80845261128181602086016020860161168a565b61128a816116bd565b602085010191505092915050565b6000601682527f50726f6475637420646f6573206e6f74206578697374000000000000000000006020830152604082019050919050565b6000601e82527f5072696365206d75737420626520686967686572207468616e207a65726f00006020830152604082019050919050565b6000600c82527f4e616d6520696e76616c696400000000000000000000000000000000000000006020830152604082019050919050565b6000601182527f436f6e74612072656769737472616461210000000000000000000000000000006020830152604082019050919050565b61137d81611655565b82525050565b600060408201905061139860008301846110f9565b81810360208301526113a98161133d565b905092915050565b600060208201905081810360008301526113cb81846111d1565b905092915050565b600060808201905081810360008301526113ed81876111d1565b905081810360208301526114018186611163565b905081810360408301526114158185611108565b9050818103606083015261142981846111d1565b905095945050505050565b6000602082019050818103600083015261144e818461122c565b905092915050565b6000602082019050818103600083015261146f81611298565b9050919050565b6000602082019050818103600083015261148f816112cf565b9050919050565b600060208201905081810360008301526114af81611306565b9050919050565b60006020820190506114cb6000830184611374565b92915050565b60006080820190506114e66000830187611374565b81810360208301526114f8818661122c565b905061150760408301856110f9565b6115146060830184611374565b95945050505050565b6000604051905081810181811067ffffffffffffffff8211171561154057600080fd5b8060405250919050565b600067ffffffffffffffff82111561156157600080fd5b602082029050602081019050919050565b600067ffffffffffffffff82111561158957600080fd5b601f19601f8301169050602081019050919050565b6000602082019050919050565b6000602082019050919050565b6000602082019050919050565b600081519050919050565b600081519050919050565b600081519050919050565b600081519050919050565b600081519050919050565b6000602082019050919050565b6000602082019050919050565b6000602082019050919050565b600061162e82611635565b9050919050565b600073ffffffffffffffffffffffffffffffffffffffff82169050919050565b6000819050919050565b600061166a82611635565b9050919050565b6000819050919050565b82818337600083830152505050565b60005b838110156116a857808201518184015260208101905061168d565b838111156116b7576000848401525b50505050565b6000601f19601f830116905091905056fea265627a7a72305820f99e87c6e4c506fd8737e328018e483d73d805ca07e625c3df6d723b980fdb3b6c6578706572696d656e74616cf50037",
  "source": "pragma solidity ^0.5.0;\r\npragma experimental ABIEncoderV2;\r\n\r\ncontract MyContract {\r\n\r\n    // evento para notificar o cliente\r\n    // de que a conta foi atualizada\r\n    event userRegisted(address _addr, string newEmail);\r\n    // evento para notificar o cliente\r\n    // de que o produto foi registrado\r\n    event productRegistered(uint id);\r\n    // evento para notificar o cliente\r\n    // de que a Etapa foi registrada\r\n    event StageRegistered(uint[]);\r\n\r\n    // estrutura para manter dados\r\n    // do usuário\r\n    struct User {\r\n        string email;\r\n    }\r\n\r\n    // estrutura para registar\r\n    // o estagio de um produto\r\n    struct Stage {\r\n        uint id;\r\n        uint[] products;\r\n        string desc;\r\n        address owner;\r\n    }\r\n\r\n    // estrutura para manter dados do produto\r\n    struct Product {\r\n        uint id;\r\n        string desc;\r\n        uint price;\r\n        address owner;\r\n    }\r\n\r\n    // mapeia um id a um produto\r\n    mapping (uint => Product) products;\r\n    // mapping para resgatar produtos de um usuário\r\n    mapping (address => uint[]) productsOfOwner;\r\n\r\n    // mapeia um id a uma etapa\r\n    mapping(uint => Stage) stages;\r\n    // mapping para resgatar etapas\r\n    // dos produtos de um usuário\r\n    mapping (address => uint[]) productsStage;\r\n\r\n    // mapeia endereço do usuário\r\n    // a sua estrutura\r\n    mapping (address => User) users;\r\n\r\n    // state variables\r\n    uint256 private lastId = 0;\r\n    uint256 private stagesId = 0;\r\n\r\n    // função para cadastrar\r\n    // a conta do usuário\r\n    function setUser(address _addr, string memory _email) public {\r\n        User storage user = users[_addr];\r\n        user.email = _email;\r\n\r\n        // notifica o cliente através do evento\r\n        emit userRegisted(_addr, \"Conta registrada!\");\r\n    }\r\n\r\n    // função para resgatar\r\n    // dados do usuário\r\n    function getUser(address _addr) public view returns(string memory) {\r\n        User memory user = users[_addr];\r\n        return (user.email);\r\n    }\r\n\r\n    // função para cadastrar um produto\r\n    function addProduct(string memory _desc, uint _price) public returns(uint) {\r\n        require(bytes(_desc).length >= 1, \"Name invalid\");\r\n        require(_price > 0, \"Price must be higher than zero\");\r\n\r\n        lastId++;\r\n        products[lastId] = Product(lastId, _desc, _price, msg.sender);\r\n        productsOfOwner[msg.sender].push(lastId);\r\n\r\n        emit productRegistered(lastId);\r\n    }\r\n\r\n    // função para resgatar info de um produto\r\n    function productInfo(uint _id) public view returns(uint, string memory, address, uint) {\r\n        require(_id <= lastId, \"Product does not exist\");\r\n\r\n        Product memory product = products[_id];\r\n        return (product.id, product.desc, products[_id].owner, product.price);\r\n    }\r\n\r\n    // função que retorna todos os produtos de um usuario\r\n    function getProducts(address _owner) public view returns(uint[] memory, string[] memory, address[] memory, uint[] memory) {\r\n\r\n       uint[] memory ids = new uint[](productsOfOwner[_owner].length);\r\n       string[] memory names = new string[](productsOfOwner[_owner].length);\r\n       address[] memory owners = new address[](productsOfOwner[_owner].length);\r\n       uint[] memory prices = new uint[](productsOfOwner[_owner].length);\r\n\r\n       for(uint i = 0; i < productsOfOwner[_owner].length; i++) {\r\n           (ids[i],names[i],owners[i],prices[i]) = productInfo(productsOfOwner[_owner][i]);\r\n       }\r\n\r\n       return (ids, names, owners, prices);\r\n   }\r\n\r\n    function addToStage(uint[] memory _productsIds, string memory _stageDesc) public {\r\n        require(bytes(_stageDesc).length >= 1, \"Name invalid\");\r\n        require(_productsIds.length > 0, \"Price must be higher than zero\");\r\n\r\n        stagesId++;\r\n        stages[stagesId] = Stage(stagesId, _productsIds, _stageDesc, msg.sender);\r\n        productsStage[msg.sender].push(stagesId);\r\n\r\n        emit StageRegistered(_productsIds);\r\n   }\r\n\r\n\r\n    // implementar o função para resgatar etapas\r\n//     function stageInfo(uint _id) public view returns (uint, uint[] memory, string memory, address) {\r\n//         require(_id <= stagesId, \"Product does not exist\");\r\n\r\n//         Stage memory stage = stages[_id];\r\n//         return (stage.id, stage.products, stage.desc, stage.owner);\r\n//    }\r\n\r\n//    function getStages(address _owner) public view returns (uint[] memory, uint[] memory, string[] memory) {\r\n\r\n//        uint[] memory ids = new uint[](productsStage[_owner].length);\r\n//        uint[] memory productsIds = new uint[](productsStage[_owner].length);\r\n//        string[] memory _stageDesc = new string[](productsStage[_owner].length);\r\n//        address[] memory owners = new address[](productsStage[_owner].length);\r\n\r\n//        for(uint i = 0; i < productsStage[_owner].length; i++) {\r\n//            (ids[i],productsIds[i],_stageDesc[i], owners[i]) = stageInfo(productsStage[_owner][i]);\r\n//        }\r\n\r\n//        return (ids, productsIds, _stageDesc);\r\n//    }\r\n\r\n}",
  "sourcePath": "C:/Users/lucas.vieira/Documents/PoA-dapp/dapp/contracts/MyContract.sol",
  "compiler": {
    "name": "solc",
    "version": "0.5.0+commit.1d4f565a.Emscripten.clang"
  },
  "schemaVersion": "3.0.9",
  "updatedAt": "2019-05-27T13:31:00.373Z",
  "devdoc": {
    "methods": {}
  },
  "userdoc": {
    "methods": {}
  }
}